:020000040800F2
:10000000580B002055050008DD010008DF0100083D
:10001000E3010008E7010008EB0100080000000010
:10002000000000000000000000000000EF010008D8
:10003000F101000800000000F3010008F5010008CC
:100040006F0500086F0500086F0500086F050008C0
:100050006F0500086F0500086F0500086F050008B0
:100060006F0500086F0500086F0500086F050008A0
:100070006F0500086F0500086F0500086F05000890
:100080006F0500086F0500086F0500086F05000880
:100090006F0500086F0500086F0500086F05000870
:1000A0006F0500086F0500086F0500086F05000860
:1000B000052C00083B2B00088F3E00086F05000848
:1000C0006F0500086F0500086F0500086F05000840
:1000D0006F0500086F0500086F050008E729000894
:1000E000E14D00086F0500086F05000800F002F8F8
:1000F00000F05FF80AA090E8000C82448344AAF163
:100100000107DA4501D100F054F8AFF2090EBAE860
:100110000F0013F0010F18BFFB1A43F0010318473B
:1001200028BA000048BA00000A444FF0000C10F84A
:10013000013B13F0070408BF10F8014B1D1108BF65
:1001400010F8015B641E05D010F8016B641E01F805
:10015000016BF9D113F0080F1EBF10F8014BAD1C55
:100160000C1B09D16D1E58BF01F801CBFAD505E073
:1001700014F8016B01F8016B6D1EF9D59142D6D3CD
:10018000704700000023002400250026103A28BFF5
:1001900078C1FBD8520728BF30C148BF0B607047F9
:1001A000642908F05382002070471FB51FBD10B5A9
:1001B00010BD08F01BFC1146FFF7F7FF00F00CF92B
:1001C00008F039FC03B4FFF7F2FF03BC02F060FB58
:1001D00030BF72B662B680F308887047704700BFC0
:1001E000FEE700BFFEE700BFFEE700BFFEE7704787
:1001F00070477047704700000CB5002001900090D8
:100200006C48006840F480306A49086000BF694863
:10021000006800F4003000900198401C01900098A4
:1002200018B90198B0F5A06FF1D16248006800F4E8
:10023000003010B10120009001E0002000900098F3
:10024000012843D15C48006840F010005A4908601A
:100250000846006820F0030008600846006840F087
:1002600002000860534840685249486008464068A8
:1002700048600846406840F480604860084640682E
:1002800020F47C1048600846406840F4E81048605C
:100290000846006840F08070086000BF454800686C
:1002A00000F000700028F9D04248406820F00300B8
:1002B000404948600846406840F00200486000BF7E
:1002C0003C48406800F00C000828F9D10CBD10B57E
:1002D000FFF792FF10BD10B53648006840F00100EE
:1002E000344908600846406834490840314948604C
:1002F00008460068324908402E49086008460068F0
:1003000020F4802008600846406820F4FE00486021
:100310004FF41F008860FFF7DAFF4FF000602949B3
:10032000086010BD10B5002100200022214B5B6841
:1003300003F00C0121B1042906D0082928D107E0D7
:10034000214B224C236027E01F4B204C236023E0ED
:10035000184B5B6803F47010164B5B6803F4803233
:10036000022303EB904022B9194B4343174C2360FF
:100370000DE0104B5B6803F4003323B1144B43438F
:10038000124C236003E0104B4343104C236003E006
:100390000D4B0E4C236000BF00BF064B5B68C3F3E0
:1003A00003130C4CE15C094B1B68CB40074C2360EA
:1003B00010BD000000100240002002400000FFF8C5
:1003C000FFFFF6FE08ED00E000127A0000000020BA
:1003D00000093D000400002008B502F091F84FF438
:1003E000FA3002F073FA012002F0E4F902F034FB73
:1003F00002F048FB02F08CFC02F09AFC022002F0B2
:10040000EFF8642002F0B9F803F040FC642002F039
:10041000B4F803F089FD07F006FE07F018FE02F0BD
:100420003FFD03F0C0FB02F043FF04F011F803F0BE
:10043000BFFC03F0D1FC70E00C2338A20021084679
:1004400003F010F83648006809F049F90446032023
:1004500022460B4632210090002003F08AF80C233C
:1004600030A20121002002F0FDFF2F48006809F0B2
:1004700077FC0446032022460B46322100900120DF
:1004800003F077F80C2329A20221002002F0EAFFF2
:100490002748006809F023F90446032022460B464A
:1004A00032210090022003F064F80C2321A20321E2
:1004B000002002F0D7FF2048006809F010F9044638
:1004C000032022460B463221009003F052F80C2301
:1004D0001AA20421002002F0C5FF1A48007809F092
:1004E00015F90446032022460B46322100900420D1
:1004F00003F03FF80C2314A20521002002F0B2FF04
:100500001348007809F002F90446032022460B46FE
:1005100032210090052003F02CF88DE74C3A0000C2
:10052000600300204C433A006800002052433A0028
:1005300064030020523A00003C030020666C6167AF
:100540004C3A000017000020666C6167523A0000C8
:10055000180000200948804709480047FEE7FEE7E9
:10056000FEE7FEE7FEE7FEE7FEE7FEE7FEE7FEE763
:1005700004480549054A064B70470000D7020008A9
:10058000ED00000858050020580B002058070020F7
:100590005807002031490143314A1160704770B556
:1005A000002100230F22C47804B32D4C246804F4E6
:1005B000E064C4F5E064210AC1F10403CA40447850
:1005C00004FA03F18478144021430901254C06788C
:1005D000A155047804F01F050124AC4005786D1185
:1005E000AD0005F1E025C5F8004109E0047804F00C
:1005F0001F050124AC401C4D0678761145F82640B5
:1006000070BD1A4A0A400243154B1B1F1A607047FF
:1006100039B1134A121D12680243114B1B1D1A6097
:1006200006E00F4A121D126882430D4B1B1D1A6013
:100630007047042808D14FF0E021096941F0040116
:100640004FF0E022116107E04FF0E021096921F04D
:1006500004014FF0E0221161704700000000FA052C
:100660000CED00E000E400E080E100E080FFFF1F0F
:1006700010B50446FA48844208D10121401500F023
:10068000E3FD0021601500F0DFFD17E0F54884422E
:1006900008D10121001500F0D7FD0021201500F040
:1006A000D3FD0BE0F048844208D10121C80300F0DB
:1006B000CBFD00214FF4004000F0C6FD10BD30B569
:1006C0000246002000235068E84C20400D790C6859
:1006D00044EA0524204350609068E54C2040D1E96D
:1006E00002542C434D7944EA450420439060D06A7B
:1006F00020F470000C7C641EE4B2234340EA0350F3
:10070000D06230BD00210160017141718160C16022
:1007100001210174704721B1826842F001028260B8
:1007200003E0826822F001028260704721B1826892
:1007300042F48072826003E0826822F480728260F8
:10074000704710B50023CBB21AB144681C43446013
:1007500002E044689C43446010BD816841F0080198
:1007600081607047014600208A6802F008020AB1E1
:10077000012000E000207047816841F004018160A1
:100780007047014600208A6802F004020AB1012085
:1007900000E00020704721B1826842F4A00282602C
:1007A00003E0826822F4A0028260704701460020C4
:1007B0008A6802F480020AB1012000E0002070473C
:1007C00010B50A4600210023416821F46041531E00
:1007D00041EA4331416010BD21B1426842F40062F8
:1007E000426003E0426822F4006242607047F0B564
:1007F00004460D4600200021092D11DDE068A5F119
:100800000A0606EB4607072606FA07F18843A5F114
:100810000A0606EB460603FA06F10843E0600CE020
:10082000206905EB4507072606FA07F1884305EB23
:10083000450603FA06F108432061072A0FDA606BC8
:10084000561E06EB86071F2606FA07F18843561E3A
:1008500006EB860605FA06F10843606322E00D2ADE
:100860000FDA206BD61F06EB86071F2606FA07F164
:100870008843D61F06EB860605FA06F10843206377
:1008800010E0E06AA2F10D0606EB86071F2606FAC5
:1008900007F18843A2F10D0606EB860605FA06F17C
:1008A0000843E062F0BD21B1826842F480128260A8
:1008B00003E0826822F48012826070470146C86CAF
:1008C00080B2704766484C300068704721B142687A
:1008D00042F48062426003E0426822F48062426037
:1008E000704721B1426842F48052426003E042689E
:1008F00022F48052426070470A460021816821F448
:10090000E04111438160704721B1826842F40042A6
:10091000826003E0826822F400428260704721B165
:10092000826842F40212826003E0826822F40212BA
:1009300082607047014600208A6802F400120AB102
:10094000012000E000207047F0B504461546002065
:1009500000220026092911DDE068A1F10A0707EB52
:10096000470C072707FA0CF29043A1F10A0707EB9F
:10097000470703FA07F21043E0600CE0206901EB3F
:10098000410C072707FA0CF2904301EB410703FAE9
:1009900007F210432061A06BC0F30156EF1C06F173
:1009A000010CA7EB0C0707EB870C1F2707FA0CF2CB
:1009B0009043EF1C06F1010CA7EB0C0707EB870730
:1009C00001FA07F21043A063F0BD10B50A460021FA
:1009D0000023816B21F44011531E41EA03518163CE
:1009E00010BD08B5002300930090009B0B440093BA
:1009F000009B1A6008BD08B50246002000900092D6
:100A000001F12800009B184400900098006880B213
:100A100008BD0A4600214168164B19401143416048
:100A200070474162826270470A460021416821F0A6
:100A30001F0111434160704740B1094908310968FD
:100A400041F40001064A0832116007E00449083108
:100A5000096821F40001024A083211607047000061
:100A60000024014000280140003C0140FFFEF0FF4F
:100A7000FDF7F1FFFFFD3FFF0246002013680B402A
:100A80000BB1012000E000207047CA4302607047AC
:100A900070B502460020002300240B125568CEB228
:100AA00005EA060415681D4015B10CB1012000E0EF
:100AB000002070BD00220A12D3430360704700007B
:100AC000002044490860091D0860091D0860091DCF
:100AD000086041483F4914310860704700213D4992
:100AE0008279002A3AD00A46126803689A430B4674
:100AF0001A600A1D126803689A430B1D1A60027976
:100B000011440A6803681A430A60324A08321268BC
:100B100003689A432F4B08331A601A1D1268036842
:100B20009A432C4B0C331A604279102A0ED11A1FAB
:100B3000126803681A43274B08331A601A1D12689B
:100B400003681A43234B0C331A600DE021494279A4
:100B500011440A6803681A430A6005E002791144E7
:100B60000A6803689A430A607047002101600171B6
:100B70000C214171002181717047164910310968BB
:100B80000143144A10321160704701460020114A97
:100B9000143212680A400AB1012000E000207047B8
:100BA0000C49143108607047014600200022094BAF
:100BB0001B6803EA0102074B14331B680B4013B197
:100BC0000AB1012000E0002070470249143108609A
:100BD0007047000000040140FFFF0F0010B50446FD
:100BE000CC48844208D10121042000F02DFB0021D3
:100BF000042000F029FB46E0C748844208D10121C7
:100C0000082000F021FB0021082000F01DFB3AE045
:100C1000C248844208D10121102000F015FB0021B8
:100C2000102000F011FB2EE0BD48844208D10121C4
:100C3000202000F009FB0021202000F005FB22E02D
:100C4000B848844208D10121402000F0FDFA00217B
:100C5000402000F0F9FA16E0B348844208D101219F
:100C6000802000F0F1FA0021802000F0EDFA0AE087
:100C7000AE48844207D10121801500F0E5FA002139
:100C8000A01500F0E1FA10BD10B50121084600F0F2
:100C9000DBFA0021012000F0D7FA10BD2DE9F04168
:100CA000024600250026002000230024002791F89A
:100CB00003C00CF00F0591F803C00CF0100CBCF150
:100CC000000F03D091F802C04CEA050591F800C06E
:100CD000BCF1000F31D0146800202BE04FF0010C64
:100CE0000CFA00F3B1F800C00CEA03069E4220D1D2
:100CF00083004FF00F0C0CFA03F7BC4305FA03FC1A
:100D00004CEA040491F803C0BCF1280F06D14FF05F
:100D1000010C0CFA00FCC2F814C00AE091F803C000
:100D2000BCF1480F05D14FF0010C0CFA00FCC2F8E1
:100D300010C0401C0828D1D31460B1F800C0BCF129
:100D4000FF0F34DD546800202EE000F1080C4FF056
:100D5000010808FA0CF3B1F800C00CEA03069E4241
:100D600021D183004FF00F0C0CFA03F7BC4305FAB6
:100D700003FC4CEA040491F803C0BCF1280F05D130
:100D800000F1080C08FA0CF8C2F8148091F803C0BE
:100D9000BCF1480F07D100F1080C4FF0010808FA28
:100DA0000CF8C2F81080401C0828CED35460BDE86F
:100DB000F0814FF6FF710180022181700421C17022
:100DC00070470246002093680B400BB1012000E001
:100DD000002070470146886880B2704702460020B4
:100DE000D3680B400BB1012000E0002070470146A2
:100DF000C86880B2704701617047416170470AB1AD
:100E0000016100E041617047C16070474FF480327A
:100E10000A43826181618261826982697047024608
:100E20000020434B18684FF68073184040EA0210C8
:100E300008433F4B186070473E49C8617047F0B5A2
:100E40000A46002300240021002500F00046B6F1E8
:100E5000004F02D1364EF16901E0354E7168C0F3A2
:100E6000034583B200F44016B6F5401F08D121F0C7
:100E700070612F4E766826F070662D4F7E6012E00E
:100E800000F48016B6F5801F06D1032606FA05F495
:100E9000A14341F0706106E0460D360103FA06F603
:100EA000B14341F0706122B1460D360103FA06F6F6
:100EB000314300F00046B6F1004F02D11C4EF16103
:100EC00001E01B4E7160F0BD30B500228B071C0F96
:100ED0000F2303FA04F2164B08338C1053F8243016
:100EE0009343134C08348D1044F8253023468C105E
:100EF00053F824308C07240F00FA04F423430C4CDD
:100F000008348D1044F8253030BD0A49DC310860C2
:100F10007047000000080140000C01400010014033
:100F20000014014000180140001C01400020014055
:100F30000000014000002042DF48006840F001004E
:100F4000DD49086008464068DC490840DA494860E5
:100F500008460068DA490840D74908600846006832
:100F600020F4802008600846406820F4FE004860B5
:100F70004FF41F0088607047CF49096821F4803121
:100F8000CD4A11601146096821F480211160B0F545
:100F9000803F03D0B0F5802F0ED106E0C649096826
:100FA00041F48031C44A116007E0C349096841F443
:100FB000A021C14A116000E000BF00BF704710B51A
:100FC00001460022002300204A11012A02D1BA4C16
:100FD000236806E0022A02D1B74C236A01E0B64C2E
:100FE000636A01F01F02012494401C400CB10120EF
:100FF00000E0002010BD38B500200090002400253E
:1010000000BF3120FFF7DBFF05460098401C009031
:101010000098B0F5A06F01D0002DF2D03120FFF77D
:10102000CEFF08B1012400E00024204638BD01466F
:101030000020A14A106820F0F80040EAC1001060CA
:101040007047A04908607047024600209A4B5868D4
:1010500020F47C1042EA01031843974B5860704714
:1010600098490866704701460020934A506820F06E
:1010700003000843506070478F48406800F00C0040
:101080007047014600208C4A506820F0F000084369
:101090005060704701460020874A506820F4E060A5
:1010A00008435060704701460020834A506820F48E
:1010B000605040EAC1005060704729B17E4A527AC0
:1010C00002437D4B5A7204E07B4A527A82437A4B48
:1010D0005A7270477B49D83108607047014600203A
:1010E000754A506820F44040084350607047002122
:1010F000714A20321170704A82F82010012802D003
:1011000004280AD104E001216B4A2032117005E065
:101110000521694A2032117000E000BF00BF70470E
:101120006949086070476449096A0143624A11626B
:101130007047654944390860704730B50021002286
:10114000002400235C4D6D6805F00C0121B10429D9
:1011500005D0082923D105E05C4D056022E05B4DF8
:1011600005601FE0544D6D6805F47012524D6D68B6
:1011700005F48034022505EB92421CB9544D5543C9
:1011800005600BE04C4D6D6805F400351DB1504D08
:101190005543056002E04D4D5543056002E04B4D5F
:1011A000056000BF00BF444D6D6805F0F0010909FE
:1011B000484D6B5C0568DD4045603F4D6D6805F44A
:1011C000E061090A434D6B5C4568DD4085603A4D3E
:1011D0006D6805F46051C90A3E4D6B5C4568DD40A1
:1011E000C560354D6D6805F44041890B3A4D6B5C27
:1011F000C568B5FBF3F5056130BD29B12E4A5269CA
:1012000002432D4B5A6104E02B4A526982432A4B18
:101210005A61704729B1284A92690243264B9A6164
:1012200004E0254A92698243234B9A61704729B1B1
:10123000214AD2690243204BDA6104E01E4AD26996
:1012400082431D4BDA61704729B11B4AD2680243C1
:10125000194BDA6004E0184AD2688243164BDA6010
:10126000704729B1144A12690243134B1A6104E012
:10127000114A12698243104B1A6170471249403972
:10128000086070470F49C86470470B49C8717047C0
:101290000948406A40F0807007494862704701463B
:1012A0000020054A92680A400AB1012000E00020AF
:1012B0007047014988727047001002400000FFF833
:1012C000FFFFF6FE000042428004424200127A0014
:1012D00000093D007C0000208C00002010B5044671
:1012E000FE48844208D10121C014FFF7ADFF002160
:1012F000E014FFF7A9FFC4E0B4F1804F08D1012149
:101300000846FFF7AEFF00210120FFF7AAFFB8E073
:10131000F348844208D101210220FFF7A2FF0021F7
:101320000220FFF79EFFACE0EE48844208D1012185
:101330000420FFF796FF00210420FFF792FFA0E0B2
:10134000E948844208D101210820FFF78AFF0021E3
:101350000820FFF786FF94E0E448844208D1012189
:101360001020FFF77EFF00211020FFF77AFF88E0B2
:10137000DF48844208D101212020FFF772FF0021BD
:101380002020FFF76EFF7CE0DA48844208D101217B
:101390004014FFF759FF00216014FFF755FF70E07C
:1013A000D548844209D10121C804FFF74DFF00212F
:1013B0004FF40020FFF748FF63E0D048844209D192
:1013C00001210805FFF740FF00214FF48010FFF7CF
:1013D0003BFF56E0CA48844209D101214805FFF786
:1013E00033FF00214FF40010FFF72EFF49E0C548FE
:1013F000844208D101214020FFF733FF0021402023
:10140000FFF72FFF3DE0C048844208D10121802032
:10141000FFF727FF00218020FFF723FF31E0BB48C3
:10142000844208D101218015FFF71BFF0021A01580
:10143000FFF717FF25E0B648844209D101210804CF
:10144000FFF702FF00214FF48030FFF7FDFE18E0A8
:10145000B048844209D101214804FFF7F5FE00217C
:101460004FF40030FFF7F0FE0BE0AB48844208D1A8
:1014700001218804FFF7E8FE00214FF48020FFF7E8
:10148000E3FE10BD00220288944B98420ED0994B87
:1014900098420BD0B0F1804F08D0914B984205D0C4
:1014A000904B984202D0904B984204D14FF68F73E4
:1014B0001A404B881A438D4B984207D08C4B984268
:1014C00004D04FF6FF431A40CB881A4302808B8822
:1014D00083850B880385814B98420BD0854B9842BE
:1014E00008D08B4B984205D08A4B984202D08A4B49
:1014F000984201D10B7A038601238382704770B52D
:10150000002400220023058C4FF6FE76354005842A
:10151000028C8388048B4FF68F752C40B51E2C40AF
:101520000D882C43751E2A400D892A434D882A4375
:101530006A4DA8420BD06F4DA84208D0744DA84206
:1015400005D0744DA84202D0734DA84213D14FF676
:10155000F7752A404D892A434FF6FB752A408D883E
:101560002A434FF6FF652B404FF6FF552B408D89E0
:101570002B43CD892B4383800483CD8885860284C9
:1015800070BD70B5002400220023058C4FF6EF7665
:1015900035400584028C8388048B48F6FF752C4007
:1015A0004FF6FF452C400D884FF6FF7606EA0525DD
:1015B0002C434FF6DF752A400D8906EA05152A43AC
:1015C0004D8806EA05152A43444DA84202D0494DEC
:1015D000A8421DD14FF67F752A404D894FF6FF7600
:1015E00006EA05152A434FF6BF752A408D8806EA9C
:1015F00005152A434FF6FF352B404FF2FF752B4060
:101600008D8906EA85052B43CD8906EA85052B439E
:1016100083800483CD880587028470BD70B5002463
:1016200000220023058C4FF6FF6635400584028CAE
:101630008388848B4FF68F752C404FF6FC752C40B9
:101640000D882C434FF6FF552A400D894FF6FF7643
:1016500006EA05252A434D8806EA05252A431F4D3B
:10166000A84202D0234DA8421DD14FF2FF752A4057
:101670004D894FF6FF7606EA05252A434FF6FF35DA
:101680002A408D8806EA05252A434EF6FF752B4031
:101690004DF6FF752B408D8906EA05152B43CD8944
:1016A00006EA05152B4383808483CD8885870284D1
:1016B00070BD70B5002200230024058C4EF6FF7625
:1016C00035400584038C8488828B48F6FF752A4058
:1016D0004FF6FF452A400D8820E00000002C014015
:1016E0000004004000080040000C004000100040D2
:1016F0000014004000340140004C01400050014003
:101700000054014000180040001C00400020004030
:101710000040014000440140004801404FF6FF7680
:1017200006EA05252A434DF6FF752B400D8906EA8A
:1017300005352B434D8806EA05352B43FA4DA84263
:1017400002D0FA4DA84208D14BF6FF752C408D8986
:101750004FF6FF7606EA85152C4384808283CD8878
:10176000A0F84050038470BD828B4FF2FF331A40C3
:101770008283828B4FF6FF7303EA01231A4382832D
:101780007047F0B50C461546002200210026078C54
:101790004EF6FF7C07EA0C070784828B018C4FF61C
:1017A000FF7707EA043640F6FF473A404FF6FF77E7
:1017B00007EA05273A434FF6FF7707EA03373A432C
:1017C000D94FB8420ED0D94FB8420BD0B0F1804FAC
:1017D00008D0D74FB84205D0D64FB84202D0D64F26
:1017E000B84206D14DF6FF77394046F48057394369
:1017F00005E047F6FF57394044F480573943828368
:101800000184F0BD828B4FF6F3731A408283828B82
:101810000A4382837047F0B50C461546002200212A
:101820000026078C4FF6FF6C07EA0C070784828BB3
:10183000018C4FF6FF7707EA04264FF60C773A4003
:101840004FF6FF7707EA03172F433A43B64FB842E4
:101850000ED0B64FB8420BD0B0F1804F08D0B44F85
:10186000B84205D0B34FB84202D0B34FB84206D108
:101870004FF6FF57394046F48077394305E04FF281
:10188000FF57394044F48077394382830184F0BDA7
:10189000028B4FF2FF331A400283028B4FF6FF7325
:1018A00003EA01231A4302837047F0B50C4615463C
:1018B000002200210026078C4FF6EF7C07EA0C0778
:1018C0000784028B018C4FF6FF7707EA041640F677
:1018D000FF473A404FF6FF7707EA03373A434FF6A0
:1018E000FF7707EA05273A438F4FB8420ED08F4F54
:1018F000B8420BD0B0F1804F08D08D4FB84205D020
:101900008C4FB84202D08C4FB84206D14FF6DF77E9
:10191000394046F01007394305E04FF65F7739400C
:1019200044F01007394302830184F0BD028B4FF667
:10193000F3731A400283028B0A4302837047F0B5A7
:101940000C46154600220021068C4FF6FE773E40DD
:101950000684028B018C4FF60C7632407E1C06EA20
:1019600003162E433243704EB0420ED06F4EB0423B
:101970000BD0B0F1804F08D06D4EB04205D06D4E07
:10198000B04202D06C4EB04206D14FF6FD763140E7
:1019900044F00106314305E04FF6F576314044F05E
:1019A0000106314302830184F0BD70B505460C4643
:1019B0005D4885420ED05D4885420BD0B5F1804F21
:1019C00008D05B48854205D05A48854202D05A4823
:1019D000854200D100E000BF208850B92389A28849
:1019E00061882846FFF7ABFFE1882846FFF79EFF96
:1019F00025E0208804280AD12389A2886188284606
:101A0000FFF753FFE1882846FFF742FF17E02088E1
:101A100008280AD12389A28861882846FFF7FBFE9F
:101A2000E1882846FFF7EEFE09E02389A288618855
:101A30002846FFF7A6FEE1882846FFF795FE70BD11
:101A40002DE9F04105460C4600260127608808B9BB
:101A5000022600E00026A088012801D1022700E02C
:101A600001272088A0B92389A28861882846FFF72A
:101A700066FFE1882846FFF759FF23893A46314639
:101A80002846FFF712FFE1882846FFF701FF13E021
:101A90002389A28861882846FFF707FFE188284646
:101AA000FFF7F6FE23893A4631462846FFF747FFFF
:101AB000E1882846FFF73AFFBDE8F0810A884B88A5
:101AC0001A438B881A43CB881A430B891A434B89D4
:101AD0001A438B891A43A0F8442070474FF6FF71D0
:101AE000818000210180C180418001727047002106
:101AF000018041808180C180018141818181C181DA
:101B00007047002101804180012181800021C18036
:101B1000018170470021018041808180C180018165
:101B20004181818170470000002C01400034014058
:101B30000004004000080040000C004021B1028871
:101B400042F00102028004E002884FF6FE731A4060
:101B50000280704731B1B0F8442042F40042A0F84E
:101B6000442005E0B0F84420C2F30E02A0F844205F
:101B700070471AB183890B43838102E083898B43C9
:101B8000838170478182704741EA0203A0F84830A0
:101B900070471AB183890B43838102E083898B43A9
:101BA0008381704701894FF6F872114001817047B7
:101BB0000A46002101894FF68F73194011430181B4
:101BC000704730B504460D4629462046FFF7F0FF22
:101BD000208940F00700208130BD2DE9F041044606
:101BE0000D4616461F46602D06D13B460122314662
:101BF0002046FFF75AFE05E03B46012231462046CB
:101C0000FFF79DFE29462046FFF7D2FF208940F0CE
:101C100007002081BDE8F08130B50C460021018924
:101C2000C9B24FF6FF7505EA03251543254329433D
:101C3000018130BD2DE9F04105460E461746984614
:101C4000002443463A4631462846FFF7E5FF2C89F3
:101C50004FF6F870044044F007044FF68F700440CC
:101C600044F070042C81BDE8F081F0B504460D46C7
:101C700016461F463B46324629462046FFF7CCFF14
:101C8000208940F480402081F0BD01858282704728
:101C90000A46002101884FF68F73194011430180D5
:101CA0007047F0B50C4615461E4600210022002361
:101CB0000189028B038C4FF6F877394021434FF6A8
:101CC000FC473A4040F201173A434FF6DD773B407C
:101CD0004FF6FF7707EA06172F433B430181028344
:101CE0000384F0BD0A460021018B4FF68F73194023
:101CF0001143018370470A460021018B48F6FF73A8
:101D000019404FF6FF7303EA02231943018370471A
:101D10000A460021818B4FF68F731940114381834E
:101D200070470A460021818B48F6FF7319404FF631
:101D3000FF7303EA022319438183704721B10288AC
:101D400042F08002028004E002884FF67F731A405E
:101D50000280704721B1828842F00402828004E050
:101D600082884FF6FB731A408280704721B18288C7
:101D700042F00802828004E082884FF6F7731A402E
:101D80008280704721B1828842F00102828004E0A3
:101D900082884FF6FE731A40828070470A460021FF
:101DA000018B4FF6F77319401143018370470A46C0
:101DB0000021018B4FF2FF7319404FF6FF7303EAC6
:101DC00002231943018370470A460021818B4FF695
:101DD000F77319401143818370470A460021818BB4
:101DE0004FF2FF7319404FF6FF7303EA02231943C2
:101DF000818370470A460021018B4FF6FB7319401F
:101E00001143018370470A460021018B4FF6FF33CF
:101E100019404FF6FF7303EA022319430183704709
:101E20000A460021818B4FF6FB73194011438183D1
:101E300070470A460021818B4FF6FF3319404FF659
:101E4000FF7303EA02231943818370470A46002186
:101E5000018B4FF67F7319401143018370470A4687
:101E60000021018BC1F30E014FF6FF7303EA022339
:101E70001943018370470A460021818B4FF67F7317
:101E800019401143818370470A460021818BC1F3B9
:101E90000E014FF6FF7303EA022319438183704753
:101EA0000A460021018C4FF6FD731940114301844D
:101EB00070470A460021018C4FF6F7731940114311
:101EC000018470470A460021018C4FF6DF731940E8
:101ED0004FF6FF7303EA02131943018470470A4661
:101EE0000021018C4FF67F7319404FF6FF7303EA10
:101EF00002131943018470470A460021018C4FF6F2
:101F0000FF5319404FF6FF7303EA0223194301847C
:101F100070470A460021018C4FF2FF7319404FF6BB
:101F2000FF7303EA02231943018470470A46002124
:101F3000018C4DF6FF7319404FF6FF7303EA02332D
:101F400019430184704730B5002301248C40A3B2AB
:101F5000048C9C430484048C02FA01F5ADB22C433A
:101F6000048430BD30B5002304248C40A3B2048C1B
:101F70009C430484048C02FA01F5ADB22C43048422
:101F800030BD70B5034600200024184618300125E6
:101F90008D40ACB21D8CA5431D8409B1082909D11F
:101FA00000EB6100056825F07005056005681543C4
:101FB00005600EE00D1FC5F34E052844056825F4A5
:101FC000E045056005684FF6FF7606EA02263543D0
:101FD000056070BD21B1028842F00202028004E077
:101FE00002884FF6FD731A400280704721B10288C3
:101FF00042F00402028004E002884FF6FB731A40AC
:102000000280704721B1828842F08002828004E021
:1020100082884FF67F731A408280704702884FF69D
:10202000F7731A40028002880A4302807047828850
:102030004FF68F731A40828082880A4382807047ED
:1020400002894FF6F8731A40028102890A4302811D
:10205000704702894FF67F731A40028102890A4352
:1020600002817047818470478185704781867047FF
:102070000187704781877047A0F840107047028839
:102080004FF6FF431A40028002880A4302807047DD
:102090000146888E70470146088F70470146888F39
:1020A00070470146B1F8400070470146888C704780
:1020B0000146088D704702460020138A0B400BB181
:1020C000012000E000207047CA430282704730B50B
:1020D0000246002000230024158A05EA01039589A1
:1020E00005EA010413B10CB1012000E0002030BD6D
:1020F000CA4302827047000010B50446FB48844280
:1021000009D101218803FFF79FF800214FF4804097
:10211000FFF79AF832E0F648844209D101214804D9
:10212000FFF79FF800214FF40030FFF79AF825E001
:10213000F048844209D101218804FFF792F8002178
:102140004FF48020FFF78DF818E0EB48844209D166
:102150000121C804FFF785F800214FF40020FFF7A4
:1021600080F80BE0E548844208D101210805FFF71B
:1021700078F800214FF48010FFF773F810BD2DE9B7
:10218000F04786B005460E460024A24600BFA14691
:102190000027B08900B100BF2F462C8A4CF6FF7093
:1021A0000440F08804432C82AC894EF6F3100440BE
:1021B000B08831890843718908430443AC81AC8AF3
:1021C0004FF6FF400440B0890443AC8201A8FEF7FB
:1021D000B4FFC648874202D1DDF810A001E0DDF867
:1021E0000CA0A88900F4004040B10AEBCA0000EB43
:1021F0000A1031684900B0FBF1F807E00AEBCA00A9
:1022000000EB0A1031688900B0FBF1F86420B8FBDC
:10221000F0F004012009642101FB1089A88900F471
:10222000004040B1322000EBC900B0FBF1F000F0FB
:102230000700044308E0322000EB09106421B0FBE2
:10224000F1F000F00F0004432C8106B0BDE8F087E8
:102250004FF41651016000218180C18001810C2161
:10226000418100218181704710B502460020108A0B
:102270004FF2FF0318400B884C8823438C8823437C
:10228000CC8823431843108210BD00210180418077
:102290008180C180704721B1828942F400528281DD
:1022A00004E082894DF6FF731A4082817047F0B5D1
:1022B0000346002400260025002040F66A17B94294
:1022C00000D100BF1846C1F3421401F01F060127D8
:1022D00007FA06F5012C01D10C3004E0022C01D1E3
:1022E000103000E014301AB107682F43076002E095
:1022F0000768AF430760F0BD1AB1838A0B4383823E
:1023000002E0838A8B4383827047028A4FF6F07320
:102310001A400282028A0A430282704782894FF27F
:10232000FF731A40828182890A438281704721B1FA
:10233000828942F00202828104E082894FF6FD73B5
:102340001A4082817047028A4FF6DF731A40028278
:10235000028A0A430282704721B1028A42F4804213
:10236000028204E0028A4BF6FF731A400282704731
:10237000C1F308028280704701468888C0F30800D4
:102380007047818941F0010181817047028BD2B28F
:102390000283028B42EA012202837047028B02F41D
:1023A0007F420283028B0A430283704721B1828AF3
:1023B00042F02002828204E0828A4FF6DF731A40E4
:1023C0008282704721B1828A42F01002828204E048
:1023D000828A4FF6EF731A408282704721B1828A57
:1023E00042F00802828204E0828A4FF6F7731A40B4
:1023F0008282704721B1828942F40042828103E0E7
:102400008289C2F30E028281704721B1828A42F42E
:102410000062828204E0828A4FF2FF731A40828255
:102420007047828A4FF6FB731A408282828A0A437F
:102430008282704721B1828A42F00202828204E0E5
:10244000828A4FF6FD731A4082827047024600204E
:10245000B1F5007F00D100BF13880B400BB1012004
:1024600000E00020704701F40072B2F5007F00D157
:1024700000BFCA430280704770B5024600240023A3
:102480000025002040F66A16B14200D100BFC1F31A
:10249000421501F01F03012606FA03F3012D02D1B4
:1024A0009689334006E0022D02D1168A334001E0BE
:1024B000968A33400C12012606FA04F4168834403A
:1024C00013B10CB1012000E0002070BD10B5002256
:1024D000002340F66A14A14200D100BF0A12012471
:1024E0009440A3B2DC43048010BD000000380140DA
:1024F0000044004000480040004C004000500040B4
:1025000010B56FF00400FEF794F82E4800682E49CD
:10251000B0FBF1F02D4908700846007800EB40014F
:10252000C1EBC0104FF6FF7101EAC00028490880D6
:1025300010BD0146254A12784A434FF0E0235A6104
:1025400000229A611A46126942F001021A6100BF24
:102550004FF0E022106900F001021AB100F480325D
:10256000002AF5D04FF0E022126922F001024FF06C
:10257000E0231A6100229A6170470146144A1288CA
:102580004A434FF0E0235A6100229A611A461269C9
:1025900042F001021A6100BF4FF0E022106900F022
:1025A00001021AB100F48032002AF5D04FF0E02287
:1025B000126922F001024FF0E0231A6100229A61B1
:1025C000704700000000002000127A0090000020F8
:1025D00092000020A34A0A400243A34B1A607047AE
:1025E0000146072323EA010212029F4B1B1D1868B4
:1025F0004FF6FF0318409D4B184310439A4B1B1D89
:10260000186070472DE9F0410746884614461D467C
:102610002846FFF7E5FFC5F1040007FA00F60F2092
:10262000284100EA0800064306F00F06E21704EB13
:10263000D2625211920002F1E022D2F8002121462A
:10264000E31704EBD3635B11A4EB431C012303FAF0
:102650000CF31A432046E31704EBD3635B119B0092
:1026600003F1E023C3F800218148005D40EA061031
:102670007F490855BDE8F08170B504460B46CE177A
:1026800001EB9676C6F38700CE1701EB9676B6106F
:10269000A1EB8606B606350E764B9B6943F0010327
:1026A000744EB3614FEAB63353F820300F26AE4074
:1026B000B343714E46F82030334653F8203004FAC5
:1026C00005F61E436C4B43F820606C4B1B680126DB
:1026D0008E403343694E336002F0010343B1674BD0
:1026E0000C331B6801268E403343644E0C36336036
:1026F00002F0020343B1614B08331E6801238B4093
:102700001E435E4B08331E6070BD00B50020594962
:102710000861C8601420486100208861C8610846CB
:10272000006840F0010008600846406854490840CD
:102730005049486008460068524908404D490860C1
:102740000846006820F4802008600846406820F4AD
:10275000FE0048600020886000214FF00060FFF715
:1027600039FF00BD10B540480830006840F0040053
:102770003D49083108603F48C06940F080503D49FC
:10278000C8614148406840F480703F49486008464D
:10279000006840F0040008600846006840F002004D
:1027A0000860FDF715FD10BD3048001D2E49091DBC
:1027B00008607047014649062E4A926942F00102BC
:1027C0002C4B9A612C4A083A526822F0E0622A4B5C
:1027D000083B5A601A4652680A435A60704730B53F
:1027E00004460025FFF791FF2248006840F480303E
:1027F0002049086000BF1F480068400C0028FAD03C
:102800004FF480601B494860A01EC4B2084640686F
:1028100040EA844048600846406840F480304860A0
:102820001A48006840F032001849086011480068F2
:1028300040F080700F49086000BF0E480068400EED
:102840000028FAD00B48406840F00200094948606F
:1028500005E008484068C0F3870505F00305022D30
:10286000F7D130BD80FFFF1F08ED00E00000FA0542
:1028700000E400E0001002400800014000040140B4
:102880000000FFF8FFFFF6FE00700040002002404D
:10289000014600BF7047694A12785AB900BF684ABA
:1028A000128802F04002002AF9D0C2B2644B1B1D0C
:1028B0001A800AE000BF634A128802F04002002A30
:1028C000F9D0C2B25F4B1B1D1A80704710B586B09D
:1028D0000446012144F20400FEF79CFC4FF4007012
:1028E000ADF8140003208DF8160018208DF817009D
:1028F00005A95548FEF7D2F94FF48060ADF81400F1
:1029000004208DF8170005A94F48FEF7C7F9019478
:102910000020ADF80800ADF80A00ADF80C00ADF8E5
:1029200010000C20ADF80E0001A94648FFF727FC67
:10293000002240F225514348FFF7B9FC01214148EC
:10294000FFF7A9FC06B010BD10B586B00446012102
:102950000820FEF75FFC01218804FEF768FC4FF4B5
:102960008060ADF8140003208DF8160018208DF853
:10297000170005A93548FEF791F94FF40060ADF84E
:10298000140004208DF8170005A93048FEF786F9D9
:1029900027208DF8000000208DF8010001208DF81F
:1029A00002008DF803006846FDF7F9FD0194002050
:1029B000ADF80800ADF80A00ADF80C00ADF8100055
:1029C0000C20ADF80E0001A91D48FFF7D8FB01222D
:1029D00040F225511A48FFF76AFC01211848FFF719
:1029E0005AFC06B010BD10B540F225511448FFF74F
:1029F00043FD10B31248FFF7BFFCC4B2412C05D110
:102A00001348006864301249086016E0422C05D172
:102A10001048006864300F4908600EE0432C05D16F
:102A20000B48006864380A49086006E0442C04D169
:102A30000848006864380749086010BD1B00002082
:102A4000004800400038014000080140000C0140EF
:102A5000540300205803002008B501210420FEF78C
:102A6000D9FB1020ADF800008DF8030003208DF88D
:102A7000020069469448FEF711F910219248FEF7CA
:102A8000BAF908BD08B501211020FEF7C3FB4FF4C9
:102A90000040ADF8000010208DF8030003208DF8F1
:102AA000020069468948FEF7F9F84FF4004187486B
:102AB000FEF7A1F908BD18B90021854A11600FE0A1
:102AC00084490968491C834A1160814208D18049C0
:102AD0000968C943804AC2F8901100217D4A1160FB
:102AE00070477FB505460C4601210220FEF79FFB8B
:102AF000ADF80850ADF804400020ADF80A00ADF87C
:102B0000060001A97548FEF7BDFC01221146734875
:102B1000FFF72FF81D208DF8000002208DF801002E
:102B20008DF8020001208DF803006846FDF737FD9F
:102B300001216A48FFF702F87FBD10B501216748FF
:102B4000FFF7C5FA80B301216448FFF7D1FA644862
:102B50000068401C6249086008460068012810DDD2
:102B60005B48006808B9012000E00020584908606F
:102B70005C48D0F8BC0108B9012000E000205A49A7
:102B800008605748006807280EDD00215348FEF70B
:102B9000D5FF012055490860C1034C48FEF72BF9C9
:102BA00010214948FEF727F910BD7FB505460C46B0
:102BB00001210846FEF73BFBADF80850ADF8044094
:102BC0000020ADF80A00ADF8060001A94FF08040E2
:102BD000FEF758FC012211469007FEF7CAFF1C20A1
:102BE0008DF8000002208DF801008DF80200012010
:102BF0008DF803006846FDF7D2FC01218807FEF737
:102C00009DFF7FBD10B501218807FFF760FA0028FE
:102C100059D037480068401C3549086001218807B1
:102C2000FFF766FA32480068022802DD01203149C8
:102C3000086030480068012815D12F480068401C02
:102C40002D4908600846006803280CDD0220294948
:102C5000086000202949087029490870294908603E
:102C60000120294908602848006801282BD12748FD
:102C70000068401C2549086008460068012810DDEE
:102C80001348006808B9012000E0002010490860DE
:102C90001448D0F8BC0108B9012000E00020124916
:102CA00008601A48006807280DDD00214FF08040B9
:102CB000FEF744FF4FF400410448FEF79CF8102152
:102CC0000148FEF798F810BD0008014000100140CF
:102CD000900121429C00002000002142000400409D
:102CE0007003002000002242BC0122424803002061
:102CF00078030020740300207C03002017000020CC
:102D00001800002078000020800300209800002098
:102D100008B501210420FEF77DFA2020ADF800005F
:102D200048208DF8030069465348FDF7B7FF08BDFA
:102D300008B501210420FEF76DFA0F20ADF8000060
:102D400048208DF8030069464B48FDF7A7FF08BDF2
:102D500001464A48006828B949480088401C484A4A
:102D6000108002E00020464A10804448006828B9DC
:102D70004448007810B90120424A10704248007857
:102D8000B0B940480078012807D140480078401C7D
:102D90003E4A107001203C4A10703C4800780228DE
:102DA00006D10020394A1070394A1080022070473D
:102DB00032480068012804D10020324A1070324A9B
:102DC00010703248007801281CD131480088401C1E
:102DD0002F4A10801046008888420ADD2848008863
:102DE000884206DA0020294A1070294A1080012002
:102DF000DDE723480088884204DD0020234A107064
:102E0000234A10800020D2E72248007838B11B48BE
:102E1000006820B900201F4908700120704717483A
:102E20000068012801D11B4908700020F6E71A4804
:102E3000008840B91148006828B918480088401C2B
:102E40001649088002E000201449088013480088D1
:102E5000B0F5C87F07DD01200F49088000200F4929
:102E60000880012070470C480088012802D100200A
:102E7000094908800020F5E70008014014012142BB
:102E8000A6000020A0000020A1000020A200002039
:102E9000A4000020A8000020AC000020AA00002010
:102EA00008B501211020FEF7B5F94FF4C040ADF888
:102EB000000010208DF8030003208DF80200694601
:102EC000F848FDF7EBFE4FF4C041F648FDF793FFDD
:102ED00008BD10B5F348406820F07060F1494860C3
:102EE0000846406840F0407048600120EE490860A4
:102EF000EE49C1F8B4010420FFF71BFB0020EA49AA
:102F000008600420FFF715FB0020E849C1F8B40170
:102F100010BD10B5E348406820F07060E14948609A
:102F20000846406840F0407048600020DE49091FB4
:102F30000860DE49C1F8B8010220FFF7FAFA012063
:102F4000D949091F0860D949C1F8B8010220FFF723
:102F5000F0FA10BD10B50024D248406820F070602F
:102F6000D04948600846406840F000604860012051
:102F7000CD490860FFF7DDFA0120CC49C1F8B40162
:102F8000FFF7D7FA07E0601CC4B2FA2C03DDFFF7A5
:102F9000C0FF012010BDC448803800680028F2D16D
:102FA000C149091F086000BFF4E710B50020BE4901
:102FB000091F0860BB48406820F07060B94948604C
:102FC0000846406840F0407048600020B749C1F8AA
:102FD000B8010420FFF7ADFA0120B349091F0860CA
:102FE0000420FFF7A6FA0020B049C1F8B40110BDD3
:102FF00010B50020AC49091F0860AA48406820F0BD
:103000007060A84948600846406840F040704860D9
:103010000120A649C1F8B8010420FFF78AFA01206F
:10302000A149091F08600420FFF783FA00209F4987
:10303000C1F8B40110BD70B504469A48406820F04C
:103040007060984948600846406840F040704860A9
:1030500000209549091F086000251DE0E00918B10E
:1030600001209149086002E000208F490860600655
:10307000040E0520FFF75DFA01208B49091F086047
:103080000520FFF756FA00208849C1F8B401052051
:10309000FFF74FFA681CC5B2082DDFDB70BD70B5B5
:1030A000054600247F48406820F070607D494860F4
:1030B0000846406840F000604860002617E00020A5
:1030C0007949091F08600520FFF733FA0120774985
:1030D000C1F8B4016006040E73488038006808B176
:1030E000601CC4B20520FFF724FA701CC6B2082E7B
:1030F000E5DB15B9FFF77CFF01E0FFF756FF20463F
:1031000070BD70B50446002518E004F0800018B1C9
:1031100001206549086002E0002063490860012041
:103120006149091F08600420FFF703FA00205F4986
:10313000C1F8B4016006040E681CC5B2082DE4DBBA
:103140000120594908605949C1F8B4010420FFF72A
:10315000F0F900205449091F086070BD10B50446FD
:10316000FFF7B7FE7820FFF766FFFFF7F3FE08B121
:1031700000BFFEE70020FFF75EFFFFF7EBFE2046F3
:10318000FFF759FFFFF7E6FEFFF7C3FE10BD10B5CE
:103190000446FFF79EFE7820FFF74DFFFFF7DAFEAB
:1031A0004020FFF748FFFFF7D5FE2046FFF743FF1B
:1031B000FFF7D0FEFFF7ADFE10BD70B504460D461B
:1031C0001DB1E0B2FFF7E3FF02E0E0B2FFF7C6FF98
:1031D00070BD70B50646002418E004F1B00000216F
:1031E000FFF7EBFF00210846FFF7E7FF0021102063
:1031F000FFF7E3FF002505E001213046FFF7DDFF83
:10320000681CC5B2802DF7DB601CC4B2082CE4DB5F
:1032100070BD06E041F6650100E0491E0029FCD1C1
:10322000401E0028F6D17047014605E0002001E06D
:10323000421CD0B27B28FBDB0A00A1F10101F5D1D1
:10324000704770B504460D4605F1B0000021FFF748
:10325000B4FF102141EA14100021FFF7AEFF04F083
:103260000F000021FFF7A9FF70BD10B500218D20D0
:10327000FFF7A3FF00211420FFF79FFF0021AF20DD
:10328000FFF79BFF10BD10B500218D20FFF795FFC4
:1032900000211020FFF791FF0021AE20FFF78DFFE6
:1032A00010BD000000100140B8012242000022427F
:1032B00070B5002418E004F1B0000021FFF77DFF95
:1032C00000210846FFF779FF00211020FFF775FF66
:1032D000002505E001210020FFF76FFF681CC5B243
:1032E000802DF7DB601CC4B2082CE4DB70BD70B528
:1032F000002418E004F1B0000021FFF75EFF002178
:103300000846FFF75AFF00211020FFF756FF00255F
:1033100005E001210846FFF750FF681CC5B2802D6B
:10332000F7DB601CC4B2082CE4DB70BD2DE9F0476C
:1033300007460E469046994600250024A8F1200035
:10334000C5B27F2F02DD0027B01CC6B2B9F1100F45
:1033500024D131463846FFF774FF002408E004EB1F
:103360000511FE4A505C0121FFF727FF601CC4B223
:10337000082CF4DB701CC1B23846FFF762FF002452
:1033800009E004EB05110831F44A505C0121FFF714
:1033900014FF601CC4B2082CF3DB12E0314638463F
:1033A000FFF74FFF00240AE005EB4501EC4A02EB72
:1033B0004101085D0121FFF700FF601CC4B2062C2B
:1033C000F2DBBDE8F08710B50246012000E0504373
:1033D0000B00A1F10104E1B2F9D110BD2DE9FF5FAD
:1033E000074691461E460E9D4FF0000A002435E028
:1033F000301B401EC1B20A20FFF7E5FFB9FBF0F019
:103400000A21B0FBF1F201FB1208BAF1000F14D14E
:10341000701EA04211DDB8F1000F0CD1AB4605EBD8
:10342000DB71491001FB0471C8B22B4620220199BF
:10343000FFF77CFF10E04FF0010AAB4605EBDB71B4
:10344000491001FB0471C8B208F13001CAB22B4621
:103450000199FFF76BFF00BF601CC4B2B442C7DB29
:10346000BDE8FF9F2DE9F04105460E4614461F4674
:103470000EE022783B4631462846FFF757FF05F11C
:103480000800C5B2782D02DD0025B01CC6B2641C50
:1034900020780028EDD1BDE8F0812DE9F04180468B
:1034A0000E461546002731464046FFF7CAFE002467
:1034B0000AE0AC4A02EB8511085D0121FFF77DFEB1
:1034C000781CC7B2601CC4B2102CF2DB701CC1B2F5
:1034D0004046FFF7B6FE00240CE06900491CA14AF3
:1034E00002EB4111085D0121FFF767FE781CC7B2AE
:1034F000601CC4B2102CF0DBBDE8F0812DE9F05F58
:1035000006460F4690461C46DDF828A04FF0000BFB
:10351000E11704EB5171C910A4EBC10131B9204688
:10352000E11704EB5171C1F3C70506E02046E1172E
:1035300004EB5171C910491CCDB23D4615E0294636
:103540003046FFF77EFEB1460BE059460BF1010B0A
:103550001AF801000121FFF730FE09F1010000F027
:10356000FF09C145F1DB681CC5B2A542E7DBBDE838
:10357000F09F2DE9FF5F86B014461D464FF0010A0B
:1035800000200390049005904FF00109002600BF31
:103590008346002213462046294606F0CBF809D27E
:1035A00085F00040CDE900402046019906F03AF848
:1035B000064604E02046294606F034F80646304622
:1035C00006F08DF822462B46CDE9000106F0ECF915
:1035D000074688460022644B3846414606F0E6F826
:1035E000CDE9000106F04EF8834607E009EB8900BB
:1035F0004FEA40090AF1010000F0FF0A0A2096FB99
:10360000F0F090FBF9F00028F0D142F2107096FB38
:10361000F0F00A2190FBF1F201FB1200C0B28DF82C
:103620000C004FF47A7096FBF0F090FBF1F201FB86
:103630001200C0B28DF80D00642096FBF0F090FBF4
:10364000F1F201FB1200C0B28DF80E000A2096FBC9
:10365000F0F090FBF1F201FB1200C0B28DF80F0008
:103660000A2096FBF0F100FB1160C0B28DF810004B
:103670002E208DF811004FF47A70BBFBF0F00A2178
:10368000B0FBF1F201FB12008DF812006420BBFBCD
:10369000F0F0B0FBF1F201FB12008DF813000A20EC
:1036A000BBFBF0F0B0FBF1F201FB12008DF814004F
:1036B0000A20BBFBF0F100FB11B08DF815000021D2
:1036C0001498801D03AA1154894608E003A810F835
:1036D0000900303003A901F8090009F10109B9F125
:1036E0000A0FF3DB002213462046294606F022F893
:1036F00008D20AF1010000F0FF0A2D20CAF10501ED
:1037000003AA50542E208DF8110000211498801D1A
:1037100003AA1154CAF1050003A942180C23DDE9DC
:103720000610FFF79FFE0AB0BDE8F09F2DE9F04FAD
:1037300089B08246894617469846DDF84CB001208C
:10374000079000200490059006900124002500BFFA
:1037500000264FEAC9604FEA106907E0CAA70008CF
:10376000A2A50008AE0000200088C34038464146AC
:1037700005F058FF0546284605F0C8FF3A4643467F
:10378000CDE9000106F010F9CDE902010022FE4B5F
:10379000DDE9020106F00AF8CDE9000105F072FF4B
:1037A000064606E004EB840044000798401CC0B2C3
:1037B00007900A20B5FBF0F0B0FBF4F00028F1D13F
:1037C00042F21070B5FBF0F00A21B0FBF1F201FB00
:1037D00012008DF810004FF47A70B5FBF0F0B0FBDA
:1037E000F1F201FB12008DF811006420B5FBF0F03E
:1037F000B0FBF1F201FB12008DF812000A20B5FBBC
:10380000F0F0B0FBF1F201FB12008DF813002E2056
:103810008DF815004FF47A70B6FBF0F0B0FBF1F2C2
:1038200001FB12008DF816006420B6FBF0F0B0FB2F
:10383000F1F201FB12008DF817000A20B6FBF0F040
:10384000B0FBF1F201FB12008DF818000A20B6FB64
:10385000F0F100FB11608DF8190000210BF106005A
:1038600004AA1154002405E004A8005D303004A926
:103870000855641C0A2CF7DB2E208DF8150000215A
:103880000BF1060004AA11541298C0F1050004A916
:1038900042180C2351464846FFF7E4FD09B0BDE845
:1038A000F08F2DE9F04105460F46164600BF05EBA7
:1038B00045014906080E3946FFF7C3FC00240BE01A
:1038C00006F1100101EB4101B04A02EB4101085D34
:1038D0000121FFF772FC641C062CF1DBBDE8F081CE
:1038E0002DE9F04105460F46164600BF05EB4501A0
:1038F0004906080E3946FFF7A4FC002409E006EB50
:103900004601A24A02EB4101085D0121FFF755FC87
:10391000641C062CF3DBBDE8F0812DE9F047054679
:10392000894616463446002C22DA6442642094FB11
:10393000F0F100FB11400A2190FBF1F0C7B20A2020
:1039400094FBF0F100FB114000F0FF080D22494606
:103950002846FFF7C5FF691CC8B23A464946FFF73B
:10396000A0FFA91CC8B242464946FFF79AFF20E0D3
:10397000642094FBF0F100FB11400A2190FBF1F070
:10398000C7B20A2094FBF0F100FB114000F0FF08E1
:103990000B2249462846FFF7A3FF691CC8B23A46E6
:1039A0004946FFF77EFFA91CC8B242464946FFF7C9
:1039B00078FFBDE8F0872DE9F04705468A461646B0
:1039C0003446002C2DDA64420D2251462846FFF77A
:1039D00087FF0A2094FBF0F100FB1140C7B20A20D8
:1039E00094FBF0F00A2190FBF1F201FB120000F0D1
:1039F000FF08642094FBF0F000F0FF09E91CC8B256
:103A00003A465146FFF74DFFA91CC8B242465146FF
:103A1000FFF747FF691CC8B24A465146FFF741FF0E
:103A20002BE00B2251462846FFF75AFF0A2094FB51
:103A3000F0F100FB1140C7B20A2094FBF0F00A211C
:103A400090FBF1F201FB120000F0FF08642094FBF0
:103A5000F0F000F0FF09E91CC8B23A465146FFF702
:103A600020FFA91CC8B242465146FFF71AFF691C45
:103A7000C8B24A465146FFF714FFBDE8F0872DE96A
:103A8000F05F05468B4616463446002C00DA644249
:103A90004FF47A7094FBF0F0C7B24FF47A7094FB55
:103AA000F0F100FB1140642190FBF1F000F0FF0801
:103AB000642094FBF0F100FB11400A2190FBF1F02F
:103AC00000F0FF090A2094FBF0F100FB114000F028
:103AD000FF0A3A4659462846FFF7E3FE691CC8B27A
:103AE00042465946FFF7DDFEA91CC8B24A46594670
:103AF000FFF7D7FEE91CC8B252465946FFF7D1FE80
:103B0000BDE8F09F2DE9F05F05460E46144642F2EF
:103B10001070B4FBF0F0C7B242F21070B4FBF0F1D9
:103B200000FB11404FF47A71B0FBF1F000F0FF0898
:103B30000846B4FBF0F100FB11406421B0FBF1F04A
:103B400000F0FF096420B4FBF0F100FB11400A21F2
:103B5000B0FBF1FA0A20B4FBF0F100FB114B3A463E
:103B600031462846FFF79DFE691CC8B242463146E1
:103B7000FFF797FEA91CC8B24A463146FFF791FEEF
:103B8000E91CC8B2524603E00088C340A2A5000861
:103B90003146FFF786FE291DC8B25A463146FFF767
:103BA00080FEBDE8F09F10B54FF44870FEF7E5FCCD
:103BB0000021AE20FFF701FB00210846FFF7FDFAC8
:103BC00000211020FFF7F9FA00214020FFF7F5FA55
:103BD0000021B020FFF7F1FA00218120FFF7EDFA74
:103BE0000021FF20FFF7E9FA0021A120FFF7E5FA05
:103BF0000021A620FFF7E1FA0021A820FFF7DDFA57
:103C000000213F20FFF7D9FA0021C820FFF7D5FA9D
:103C10000021D320FFF7D1FA00210846FFF7CDFAA3
:103C20000021D520FFF7C9FA00218020FFF7C5FA4F
:103C30000021D820FFF7C1FA00210520FFF7BDFAC7
:103C40000021D920FFF7B9FA0021F120FFF7B5FADA
:103C50000021DA20FFF7B1FA00211220FFF7ADFAB8
:103C60000021DB20FFF7A9FA00213020FFF7A5FA99
:103C700000218D20FFF7A1FA00211420FFF79DFA03
:103C80000021AF20FFF799FA10BD000000B587B002
:103C900001214FF40170FDF7BDFA4FF40040FDF72C
:103CA0001DFA4020ADF8040000208DF8070001A99E
:103CB0003948FCF7F3FF3948FCF7DAFC00200290A2
:103CC0008DF80C008DF80D004FF46020049000205A
:103CD000059001208DF8180002A93048FCF7EFFC90
:103CE00001212E48FCF717FD2C48FCF736FD00BFDC
:103CF0002A48FCF737FD0028FAD12848FCF73CFD9C
:103D000000BF2648FCF73DFD0028FAD107B000BDF2
:103D100010B504460723012221462048FCF767FD21
:103D200001211E48FCF737FD00BF02211B48FCF7AC
:103D3000A3FE0028F9D01948FCF7C0FD10BD2DE9FD
:103D4000FF5F0620FFF7E4FF834605F0DFFC4FF03E
:103D50006632134BCDE9000105F028FD064600222E
:103D6000104B05F023FD00220F4BCDE9020105F0B9
:103D70001DFD044600220D4B05F0FCFA804605F0BF
:103D800051FC824640F2EC40824500DD82465046BE
:103D900004B0BDE8F09F000000080140002401408D
:103DA00066660A4000002640000059400000B0400E
:103DB00008B501210820FDF72DFA4FF46040ADF859
:103DC000000010208DF8030002208DF802006946E3
:103DD0005148FCF763FF08BD00B589B001210420FC
:103DE000FDF725FA01210820FDF714FAC020ADF8EF
:103DF000200018208DF8230002208DF8220008A949
:103E00004548FCF74BFF4FF6FF70ADF818000E2049
:103E1000ADF814000020ADF81A00ADF8160005A9A1
:103E20003E48FDF72FFB3020ADF804000120ADF82F
:103E300006000020ADF80A00ADF80C0001A93748D3
:103E4000FDF75DFB01A93548FDF79BFB00213348D9
:103E5000FDF7A4FF00213148FDF7A9FF01212F48FC
:103E6000FDF76CFE012206212C48FDF782FE1E2084
:103E70008DF8000000208DF801008DF8020001206F
:103E80008DF803006846FCF78AFB09B000BD2DE9F8
:103E9000F04102212148FEF71AF9D0B102211F4852
:103EA000FEF726F91D48FEF7F3F8064606F03CF942
:103EB00004461B48006806F01FF98046214605F0BD
:103EC0007BFF074606F0F8F886B231461348FEF746
:103ED000CDF804211148FEF7FAF8D0B104210F48BB
:103EE000FEF706F90D48FEF7D6F8064606F01CF96F
:103EF00005460C48006806F0FFF88046294605F0A4
:103F00005BFF074606F0D8F886B231460348FEF755
:103F1000AFF8BDE8F0810000000C0140000800404F
:103F2000240000202800002008B501210820FDF70A
:103F300071F94FF44070ADF8000010208DF80300C7
:103F400003208DF802006946F748FCF7A7FE08BD7C
:103F500010B5F548001D006820F0F000F249091D79
:103F600008600846006840F0300008600120EF4912
:103F70000860EF48D0F8240108B9002010BD0120E6
:103F8000EA49091F0860FEF7D4FA0020E849C1F8A1
:103F9000A401E6488038006808B10020EEE701205F
:103FA000FEF7C7FA0020E149091F08600120E5E794
:103FB00010B5DD48001D006820F0F000DA49091D49
:103FC00008600846006840F0300008600020D749CB
:103FD000091F0860D649C1F8A4010120FEF7A9FA1B
:103FE0000120D249091F0860D149C1F8A401FEF798
:103FF000A0FA10BD10B50024CB48001D006820F0C9
:10400000F000C949091D08600846006840F08000BA
:1040100008600120C5490860FEF78BFA0120C449F9
:10402000C1F8A001FEF785FA0AE0601CC4B2322C88
:1040300003DDFFF7BDFF002010BD0120FEF779FA78
:10404000BA48803800680028EFD1B849091F0860D5
:104050000120F1E710B50020B449091F0860B248FB
:10406000001D006820F0F000AF49091D08600846F7
:10407000006840F0300008600020AD49C1F8A4019C
:104080000120FEF756FA0120A849091F0860FEF733
:1040900050FA0020A649C1F8A00110BD10B50020BB
:1040A000A249091F0860A048001D006820F0F00028
:1040B0009D49091D08600846006840F0300008600E
:1040C00001209B49C1F8A401FEF733FA012097496A
:1040D000091F0860FEF72DFA00209549C1F8A001DC
:1040E00010BD70B504469048001D006820F0F00037
:1040F0008D49091D08600846006840F030000860DE
:1041000000208A49091F0860002516E0E009874958
:1041100008606006040E0120FEF70BFA01208449B6
:10412000C1F8A001FEF705FA00208049091F0860C8
:104130000120FEF7FEF9681CC5B2082DE6DB70BD54
:104140002DE9F04105460E4617469846FFF700FF59
:1041500010B90120BDE8F0816906080EFFF7C1FF24
:10416000FFF748FF18B9FFF723FF0120F2E73046B9
:10417000FFF7B7FFFFF73EFF00240BE018F804003D
:10418000FFF7AFFFFFF736FF18B9FFF711FF002069
:10419000E0E7641CBC42F1DBFFF70AFF0020D9E72F
:1041A00070B5054600246048001D006820F0F0004E
:1041B0005D49091D08600846006840F080000860FD
:1041C000002617E000205949091F08600220FEF769
:1041D000B0F901205649C1F8A0016006040E534809
:1041E0008038006808B1601CC4B20220FEF7A1F953
:1041F000701CC6B2082EE5DB15B1FFF72BFF01E0FE
:10420000FFF74CFF204670BD2DE9F04106460F46F2
:1042100014461D46FFF79CFE10B90120BDE8F08151
:104220007106080EFFF75DFFFFF7E4FE18B9FFF710
:10423000BFFE0120F2E73846FFF753FFFFF7DAFE33
:10424000FFF786FE012101EB4601C8B2FFF749FFE7
:10425000FFF7D0FE0DE0012C04D10020FFF7A0FFF6
:10426000287003E00120FFF79BFF28706D1C601E83
:10427000C4B2002CEFD1FFF79BFE0020CEE770B553
:1042800005460E460024FFF763FE2846FFF729FF88
:10429000641CFFF7AFFE3046FFF723FF641CFFF7F7
:1042A000A9FEFFF755FE691CC8B2FFF71AFF641C90
:1042B000FFF7A0FE0020FFF773FF0446FFF778FE2C
:1042C000204670BD2DE9F0410746884615461E463A
:1042D0000024FFF73DFE3846FFF703FFFFF78AFE95
:1042E0004046FFF7FEFEFFF785FEFFF731FE791C23
:1042F000C8B2FFF7F6FEFFF77DFE00BF0DE0681EB7
:10430000A04204D00120FFF74BFF305503E000200E
:10431000FFF746FF3055601CC4B2AC42EFDBFFF73D
:1043200047FE2046BDE8F081000C0140A4812142F7
:10433000008021422DE9F04180460D4616461F4679
:104340000024FFF705FE4046FFF7CBFEFFF752FEC5
:104350002846FFF7C6FEFFF74DFE00BF06E0385DBA
:10436000FFF7BFFEFFF746FE601CC4B2B442F6DBA7
:10437000FFF71EFE0120BDE8F08170B505460E4630
:10438000144631462846FFF77AFF2070012070BDA1
:1043900037B504460D4602AB012229462046FFF7F9
:1043A000C9FF3EBD2DE9F8430746884614461D4621
:1043B000089E6A4641463846FFF7DFFF28B3601C77
:1043C000FF2101FA00F0C4F108012944491EFF222F
:1043D0000A41104300F0FF09C5F1080006FA00F099
:1043E000C6B2C4F1070006419DF8000000EA0900CA
:1043F00000909DF80000304300909DF80020414659
:104400003846FFF7C5FFBDE8F8830020FBE7F8B5A5
:1044100006460F4614461D466A4639463046FFF7A3
:10442000ACFF2DB10120A0409DF80010084305E02D
:104430000120A0409DF8001021EA0000C0B20090C9
:104440009DF8002039463046FFF7A2FFF8BD000076
:104450001FB501210846FCF7DDFE01210820FCF70D
:10446000D9FE0C20ADF80C0048208DF80F0003A9F0
:104470001148FCF713FC0C210120FCF725FD4FF43B
:104480008050019000208DF808000C208DF8090064
:1044900001208DF80A0001A8FCF720FB28208DF8E8
:1044A000000001208DF801008DF802008DF8030056
:1044B0006846FCF774F81FBD000C01400146002956
:1044C00001DA484200E00846704710B5F648007827
:1044D00028BBF648006810BBF5480068FFF7EEFF00
:1044E00000280BDAF3480068FFF7E8FF642805DAD4
:1044F000F1480068401CF049086002E00020EE49E5
:104500000860ED480068B0F5967F08DDEB4800686C
:1045100005F0B6FDEA4908600120E449086010BDD5
:1045200010B504462046FFF7C9FFE64991FBF0F3BA
:10453000B3F5803F02D34FF6FF7200E09AB2104607
:1045400010BD30B505460C46002D03DD0020DE49C8
:10455000086002E00120DC490860002C04DD002036
:10456000D9490831086003E00120D74908310860C3
:104570002846FFF7D5FFD54908602046FFF7D0FF52
:10458000D349086030BD70B506460D46D149304666
:1045900005F0DEFD0CD3D049304605F0D9FE07D337
:1045A000C1480078012803D040F24C40854216DA19
:1045B00001240020BE490860BE490860C249091DA7
:1045C0000860C649304605F0C3FD04D3C4493046EF
:1045D00005F0BEFE08D20120B349087004E00024B3
:1045E0000120B949091D0860204670BD41F288309C
:1045F0004142AF4A12688A4201DAAD4A1160AC4AC0
:104600001268824201DDAA4A1060AA4A12688A42F0
:1046100001DAA84A1160A74A1268824201DDA54A60
:104620001060704770B504460D46AE48007801280A
:1046300003D0AD48007801282FD14FF07E51AB4810
:10464000006805F0B9FBA949064608604FF07E51A5
:1046500005F0E2FC07D16019FFF730FF064605F0D0
:104660004BFDA3490860A2480168A24805F012FC6E
:10467000A1490860A149A048006805F069FD02D27F
:104680009E489D4908609E499B48006805F060FE71
:104690000BD29B489849086007E09A489649086001
:1046A000002092490860924908608E4800780128ED
:1046B00008D1914801689448006805F07DFB924953
:1046C00008600FE088480078012808D18A4801680E
:1046D0008D48006805F078FE8B49086002E00020F4
:1046E00089490860894801688748006805F030FEFC
:1046F00003D286480068844908608448006880F0D6
:10470000004681480168304605F022FE05D27F4808
:10471000006880F000407C4908607B48006805F034
:10472000AFFC70BDF0B502460B460024012108E045
:10473000774D35F811604D1E754F27F815604D1CEB
:10474000E9B20A29F4DBD5182DB2714E7582002129
:1047500005E06F4D35F911502C444D1CE9B20A2982
:10476000F7DB0A2594FBF5F528B2F0BD2DE9F35FE0
:104770006848006868490860DDE90001FFF7D2FF7A
:10478000044605F0B9FC654908606548006805F015
:10479000E7FA06464FF06632624B05F007F804462A
:1047A00004F0FAFC5E4908605C48006805F0D8FA3D
:1047B00080464FF033325C4B04F0F8FF04460D4660
:1047C0005748006805F0CCFA064622462B4604F00E
:1047D00015FD824604F0E0FC514908600846016876
:1047E0005248006805F0E8FA504908604A480168F4
:1047F0004E48006805F0E0FA4C4908604C494B48C7
:10480000006805F0A5FD02D24948484908604949B9
:104810004648006805F09CFC02D2464843490860BF
:10482000454801684148006805F0C6FC0646434912
:1048300005F030FB0446424801683948006805F03D
:10484000BBFC06463D4905F025FB0546214605F023
:10485000B3FA3C4908600846006805F011FCBDE861
:10486000FC9F2DE9F04704460D461548006805F009
:1048700043FC8046214605F09CFD06462946324809
:10488000006805F099FC814631463048006805F023
:1048900093FC8246494605F08FFA804605F0F0FB0E
:1048A00007463846BDE8F0871A0000207400002053
:1048B0001C00002020000020C00300203800002041
:1048C00070000020C0090E00B481214224000020A5
:1048D00028000020000020C200002042000096C2F4
:1048E000000096421700002018000020D00300208E
:1048F000D403002000C02847CC0300200000C042A1
:10490000000070440000C040C8030020C403002021
:104910003C04002078000020B8030020B0030020F1
:10492000B40300206666E63F3333D33FBC03002068
:1049300000409C4800409CC86C0000200000BE4223
:1049400068000020AC03002064000020600000200C
:1049500010B5044603F0C5FDFB490860012C15D1D4
:1049600003F0DCFBF948006880F00040F84908607B
:10497000F849B1F9000005F0BFFBF7490860F749B5
:10498000B1F9040005F0B8FBF549086010BD10B599
:104990000021F448006805F0DBFC05D2F249F1483B
:1049A000006805F0D5FB0BD9F049EE48006805F02A
:1049B000CFFB0CD2EE49EB48006805F0C9FC06D8E5
:1049C0000120EC4908700020EB49087017E0002135
:1049D000E448006805F0BCFB0CD2E849E1480068F7
:1049E00005F0B6FC06D20020E24908700120E24939
:1049F000087004E00020DF490870DF49087010BD2E
:104A000010B5DF48006828BBDE48006810BBDE48F0
:104A10000068F8B9DD480068E0B9DD480068401C6E
:104A2000DB4908600846006806280DDD40F22620B4
:104A3000D8490860D8490860D84908600120D84999
:104A400008600020D24908600020CA490870CA499D
:104A5000087050E1CA480068F0B9CA480068D8B97F
:104A6000C9480068C0B9C9480068012814D1CC48B9
:104A70000068012803D14FF47A70C6490860C7481E
:104A8000006805F039FBC74908600120B949087082
:104A90000020B94908702EE1B9480068B8B9B94892
:104AA0000068A0B9B8480068012810D1B74800686C
:104AB00001280CD1B748006805F01EFBB949086011
:104AC0000120AC4908700020AB49087013E1AC48E4
:104AD000006848BBAB480068012825D1AA48006897
:104AE000012821D1A948006801281DD1AE48AF494D
:104AF0000860AF48AF49086042F22830A549086015
:104B0000A7480068012802D14FF47A700860A348D2
:104B1000006805F0F1FAA349086001209549087082
:104B2000002095490870E6E09548006801281DD1ED
:104B300094480068D0B994480068B8B993480068B0
:104B4000A0B997480068012803D14FF47A709149C1
:104B500008609248006805F0CFFA9249086000208A
:104B600084490870012084490870C4E084480068C2
:104B7000012815D18348006890B98348006878B946
:104B80008248006801280BD18248006805F0B4FA19
:104B90008449086000207749087077490870AAE0C6
:104BA00077480068012817D176480068A0B9764890
:104BB0000068012810D17548006801280CD175489B
:104BC000006805F099FA7749086001206949087082
:104BD0000020694908708EE069480068012816D1F4
:104BE00068480068012812D16748006878B96748AA
:104BF000006860B96748006805F07EFA6949086096
:104C000000205C49087001205B49087073E05C4833
:104C10000068012817D15B480068012813D15A4861
:104C2000006880B95948006801280CD159480068CB
:104C300005F062FA5B49086000204E4908700120C7
:104C40004D49087057E04E480068012828D14D486A
:104C50000068012824D14C480068012820D14B4825
:104C60000068E8B950485149086051485149086006
:104C700042F228304749086049480068012802D1BB
:104C80004FF47A7008604548006805F035FA4549E8
:104C900008600020374908700120374908702AE071
:104CA00037480068012821D13648006801281DD105
:104CB00035480068012819D134480068012815D109
:104CC0000020384908602B4908702B4908703A4881
:104CD0000068401C384908600846006823280ADD3F
:104CE0000120364908603649086004E00020214967
:104CF00008702149087010BD70B56420FEF728F8CF
:104D00000546012D0AD12F49086000202E49087060
:104D10002B49086010212D48FCF76FF8022D07D1B0
:104D20002B48007808B9012000E0002028490870CD
:104D3000FEF77DF80446012C51D12648007808B9C9
:104D400001204AE048E000002C0000203400002050
:104D500038000020040400203C0000200A04002049
:104D600054000020180400200000344300002DC32C
:104D7000000034C31700002018000020000028C3E2
:104D80003003002034030020380300203C030020BF
:104D9000600300205003002054030020580300202B
:104DA0004C030020780000200000C442680000206E
:104DB0009A99593F6C0000204403002040030020D2
:104DC000680300206C0300201A0000200008014046
:104DD0001B0000204A00002000208749087070BD99
:104DE00010B58648006800287ED14FF48050844971
:104DF00008608448007808B9012000E0002081495B
:104E000008700846007838BB7F480078FFF7A0FD9F
:104E1000FEF795FF7D4908607D480068401C7C498D
:104E200008607C4800687949096808447949086045
:104E30007748006864280BD108460068642190FB1D
:104E4000F1F07549086000207249086070490860F7
:104E5000FFF752FF002010BD7048006800284CD1B9
:104E600004216F48FBF7ADFF6E49086008216C48CC
:104E7000FBF7A7FF6C49086002216948FBF7A1FF17
:104E80006A49086001216648FBF79BFF6849086092
:104E900068480068401C6749086067480068012846
:104EA00004D166480068401C644908606348006893
:104EB000322809D14CF2503061490860614862499A
:104EC00008606248624908605C480068B0F5487F45
:104ED00006D160485C4908604FF07E505C4908602C
:104EE000544800685C4900E083E00968884204DDBA
:104EF000002050490860FFF783FD584800680128EA
:104F000008D141F61F4141F28730FDF7EAFD00204C
:104F10005249086052480068012810D1514852494E
:104F200008600020514908705149087041F61F413E
:104F300041F28730FDF739FE0020494908604D48AD
:104F4000006801280FD13B480068401C39490860BF
:104F50000846006840490968884204DD0020354958
:104F60000860FFF714FD28480078FFF7F1FC42487D
:104F7000016842480068FFF774FC414908604148F5
:104F8000016841480068FFF7F1FB404908603D486F
:104F900001683D480068FFF745FB3D490860384817
:104FA00000683A490968084439490968401A36498D
:104FB000086033480068354909680844344909687D
:104FC000084430490860FFF711FB134801682B487B
:104FD0000068FFF7D8FA30B92A4801682A48006803
:104FE000FFF7AFFA03E000210846FFF7AAFAFFF740
:104FF0006CFA00202FE700004A0000203081214297
:1050000014040140900300201400002098030020A5
:105010009C030020A0030020300000206803002033
:105020000008014030030020340300203803002032
:105030003C030020A40300206C0300206403002034
:10504000500300200000D242680000206666863FC0
:105050006C0000200000CA42A8030020400300208A
:105060004803002000606A467800002017000020F6
:1050700018000020740300203C00002038000020AD
:1050800084030020200000201C0000208803002052
:105090008C03002038B50446FB4890F82400C0B1CA
:1050A00014B10220009001E000200090F64A12683E
:1050B000D17BF54A526810786B460122FFF740F821
:1050C00010B14FF0FF3038BD9DF80010EE4841742C
:1050D00023E0ED48807A10B94FF0FF30F3E724B1B8
:1050E000E948407C08B10020EDE714B101200090B0
:1050F00001E000200090E44A1268D17BE24A526845
:1051000010786B460122FFF71BF810B14FF0FF300B
:10511000D9E79DF80010DC4841740020D3E738B58A
:10512000002419E0D8480068C07AA04204D0D648CC
:105130000068407DA04200D10CE0D349496808785E
:105140006B4601222146FFF75FF810B14FF0FF30A8
:1051500038BD00BF601CC4B2CB4840680079A04293
:10516000E0DC0020F4E770B504460D46C648006850
:10517000C07AA04204D0C4480068407DA04202D159
:105180004FF0FF3070BDC04840680079A04202DC9B
:105190004FF0FF30F6E7BC49496808782B460122FA
:1051A0002146FFF731F8EDE738B50446B64890F8E8
:1051B0002300A04201D1002038BD14B1302000905E
:1051C00001E000200090B048807C20B19DF80000F4
:1051D00040F002000090AC4890F8220020B19DF809
:1051E000000040F080000090A74A1268117DA64A96
:1051F000526810786B460122FEF7A2FF10B14FF003
:10520000FF30D9E7A04880F823400020D4E738B524
:10521000044604F0700010B10120009005E014B1C4
:105220000020009001E040200090974A1268917C95
:10523000954A526810786B460122FEF781FF20B133
:10524000002191488172481E38BD9DF8000020F071
:1052500040018D4801730020009004F0400020B907
:105260009DF8000040F00400009004F0200020B9F8
:105270009DF8000040F00200009004F0100020B9FA
:105280009DF8000040F00100009004F0080020B9F3
:105290009DF8000040F0380000907B4A1268D17CF5
:1052A000794A526810786B460122FEF749FF20B117
:1052B000002175488172481EC6E724B1082C02D02F
:1052C0000020FFF771FF70488472002101753220C1
:1052D000FDF753F90020B7E738B504466A48807CEB
:1052E000A04201D1002038BD002C46D0664A126889
:1052F0001179654A526810786B460122FEF784FFE7
:1053000010B14FF0FF30EEE79DF8000020F02000D4
:1053100000905D4A126811795B4A526810786B46BA
:105320000122FEF70DFF10B14FF0FF30DBE7032045
:10533000FDF723F902200090534890F8220020B195
:105340009DF8000040F0800000904F4890F8230046
:1053500020B19DF8000040F0300000904A4A1268E9
:10536000117D494A526810786B460122FEF7E8FE2B
:10537000002851D04FF0FF30B5E7434A1268117949
:10538000414A526810786B460122FEF73DFF10B18A
:105390004FF0FF30A7E73C48807A00F0010028B1C9
:1053A0009DF8000040F02000009004E09DF800000F
:1053B00020F020000090344A12681179324A526875
:1053C00010786B460122FEF7BBFE10B14FF0FF30A4
:1053D00089E70320FDF7D1F82B4890F8220010B19F
:1053E0008020009001E000200090274890F82300E2
:1053F00020B19DF8000040F030000090224A126871
:10540000117D214A526810786B460122FEF798FE02
:1054100010B14FF0FF3066E71B488474002062E74C
:1054200008B51948807A10B94FF0FF3008BD002048
:105430000090154A1268D17B134A526810786B4667
:105440000122FEF77DFE10B14FF0FF30EEE70E4A6D
:10545000126851790C4A526810786B460122FEF7A7
:105460006FFE10B14FF0FF30E0E7074A1268117984
:10547000054A526810786B460122FEF761FE28B19A
:105480004FF0FF30D2E70000D8030020F74890F833
:105490002400002850D00C200090F44A12681179A2
:1054A000F24A526810786B460122FEF749FE10B1AD
:1054B0004FF0FF30BAE7C0200090EC48807A00F04F
:1054C000010020B19DF8000040F020000090E74A64
:1054D00012681179E54A526810786B460122FEF78E
:1054E0002FFE10B14FF0FF30A0E7E048407C10B134
:1054F0000220009001E000200090DC4A1268D17B7D
:10550000DA4A526810786B460122FEF719FE10B194
:105510004FF0FF308AE700200090D44A126851799A
:10552000D24A526810786B460122FEF709FE002825
:1055300052D04FF0FF3079E704200090CB4A126838
:105540001179CA4A526810786B460122FEF7F8FDBD
:1055500010B14FF0FF3069E7C448807C20B9C348E0
:10556000807A00F0010010B94020009001E0602036
:105570000090BE4A12681179BC4A526810786B4696
:105580000122FEF7DDFD10B14FF0FF304EE7B748C6
:10559000407C10B10120009001E000200090B34A4F
:1055A0001268D17BB14A526810786B460122FEF72F
:1055B000C7FD10B14FF0FF3038E7AC4A126851799F
:1055C000AA4A52681078A94B10330122FEF7B8FDA1
:1055D00010B14FF0FF3029E7002027E770B50446EF
:1055E000002624F00104A14890F8240008B100200E
:1055F00070BD9E48807A10B94FF0FF30F8E79B48A5
:10560000057C807A2040994908740846007CA042B5
:1056100002D04FF0FF3600E0002614B99348007D19
:1056200018B10120FFF736FD02E00020FFF732FD40
:105630003CB1FFF7F5FE20B18C4805744FF0FF3008
:10564000D6E73046D4E738B504468848807A10B9A2
:105650004FF0FF3038BDBC2C02DB0120009015E07C
:10566000622C02DB0220009010E02A2C02DB0320D7
:1056700000900BE0142C02DB0420009006E00A2CC2
:1056800002DB0520009001E0062000907748C07AF8
:105690009DF80010884201D10020DBE7734A1268B0
:1056A0009178724A526810786B460122FEF748FDE5
:1056B00010B14FF0FF30CDE79DF800106B48C1727C
:1056C0000020C7E738B50446282C02DD4FF0FF3034
:1056D00038BDDCB90020FFF767FD00208DF8000021
:1056E00007208DF80100614A1268917C5F4A526878
:1056F00010786B460222FEF723FD10B14FF0FF3009
:10570000E6E70021594801750020E1E70120FFF795
:105710004BFD20208DF80000012C06D100208DF8D3
:1057200001000520FFF78FFF17E0052C06DC0120A4
:105730008DF801000520FFF786FF0EE0142C06DC33
:1057400002208DF801000A20FFF77DFF05E003200D
:105750008DF801001420FFF776FF9DF80100072166
:1057600001EB8010C0B28DF80100404A1268917CB4
:105770003E4A526810786B460222FEF7E1FC10B1F7
:105780004FF0FF30A4E708213848817200210173EF
:10579000012101750020FFF721FF002098E738B5AF
:1057A00004463248807A10B94FF0FF3038BD2F4898
:1057B00090F8240010B14FF0FF30F7E72B48007D40
:1057C00050B134B1282C04DCE0B2FFF77BFF00209D
:1057D000ECE70020FFF776FF042C01DA042404E054
:1057E000B4F57A7F01DD4FF47A744FF47A7090FB50
:1057F000F4F0401EC0B200901C4A126851781B4A57
:10580000526810786B460122FEF79AFC10B14FF0F7
:10581000FF30CBE79DF80000401C4FF47A7191FBFC
:10582000F0F081B21148C1810146C9894810FFF7E3
:105830000AFF0020BAE738B504460C48807A10B950
:105840004FF0FF3038BD022C06D0042C07D0082CB6
:1058500008D0102C0FD10BE0002000900EE00820A3
:1058600000900BE01020009008E00000D80300201A
:105870001820009002E04FF0FF30E3E700BFF94846
:10588000407A9DF80010B0EBE10F01D10020D9E77C
:10589000F44A1268D179F34A526810786B460122B3
:1058A000FEF74EFC10B14FF0FF30CBE79DF8000043
:1058B000C110EC4841720020C4E738B50446E948FD
:1058C000807A10B94FF0FF3038BDFA2C09D0B4F50A
:1058D000FA7F09D0B4F57A7F09D0B4F5FA6F0CD10C
:1058E00008E0002000900BE00820009008E0102065
:1058F000009005E01820009002E04FF0FF30E3E751
:1059000000BFD848007A9DF80010B0EBE10F01D13C
:105910000020D9E7D34A12689179D24A52681078A8
:105920006B460122FEF70CFC10B14FF0FF30CBE7C5
:105930009DF80000C010CB4908720020C4E71CB5D8
:1059400080208DF80000C74A1268917CC54A5268D1
:1059500010786B460122FEF7F3FB10B14FF0FF30D9
:105960001CBD6420FCF709FE00208DF80000BD4A34
:105970001268917CBB4A526810786B460122FEF790
:10598000DFFB10B14FF0FF30EAE7B64A1268917DB5
:10599000B44A526810786B460622FEF735FC10B107
:1059A0004FF0FF30DCE79DF80500C007400F9DF881
:1059B000031001F0010140EA41009DF8011001F0DF
:1059C000010140EA010494B1012C03D10121A54851
:1059D000C17431E0022C03D10021A248C1742BE034
:1059E0002146A1A002F0F2FD4FF0FF30B8E79D4A3A
:1059F0001268D1789B4A526810786B460122FEF7F4
:105A000003FC10B14FF0FF30AAE79DF8000000F052
:105A10000F042CB99E4802F0D9FD4FF0FF309FE7EC
:105A2000042C06D19BA002F0D1FD01218D48C17448
:105A300002E000218B48C174FF218A488172FF2057
:105A400088490872FF2187484172C1724FF6FF7181
:105A5000C181FF21017481740121017380F822103A
:105A6000002180F8231041750175163001604160F6
:105A70008160163880F8241080F82510C1844FF416
:105A8000FA60FFF71AFF10B14FF0FF3068E702200D
:105A9000FFF7D1FE10B14FF0FF3061E72A20FFF78A
:105AA000D2FD10B14FF0FF305AE73220FFF777FEFA
:105AB00010B14FF0FF3053E70020FFF78FFD10B11A
:105AC0004FF0FF304CE70020FFF706FC10B14FF01D
:105AD000FF3045E70020FFF79AFB002040E77047C2
